:020000040000FA
:100000000C9462000C94C0030C9499030C948A0025
:100010000C948A000C948A000C948A000C948A0038
:100020000C948A000C948A000C948A000C948A0028
:100030000C948A000C948A000C948A000C948A0018
:100040000C944F030C948A000C941D030C94F7023B
:100050000C948A000C948A000C948A000C948A00F8
:100060000C948A000C948A000000000024002700F1
:100070002A0000000000250028002B0000000000DE
:1000800023002600290004040404040404040202DA
:100090000202020203030303030301020408102007
:1000A0004080010204081020010204081020000012
:1000B0000008000201000003040700000000000027
:1000C00000009C0811241FBECFEFD8E0DEBFCDBFDB
:1000D00011E0A0E0B1E0E6EEF1E102C005900D9282
:1000E000A631B107D9F722E0A6E1B1E001C01D9227
:1000F000AF3FB207E1F710E0C2E6D0E004C02197BD
:10010000FE010E94EB08C136D107C9F70E94E70340
:100110000C94F1080C940000CF93DF9390E0FC0165
:10012000E656FF4F24918A579F4FFC018491882304
:10013000C9F090E0880F991FFC01E859FF4FA59185
:10014000B491FC01EE58FF4FC591D49161110DC0DF
:100150009FB7F8948C91209582238C9388812823D3
:1001600028839FBFDF91CF910895623051F49FB7EC
:10017000F8943C91822F809583238C93E8812E2BD9
:10018000EFCF8FB7F894EC912E2B2C938FBFEACF43
:100190008E3008F08E508770806480937C00809150
:1001A0007A00806480937A0080917A0086FDFCCF8B
:1001B00080917800909179000895AF92BF92CF928C
:1001C000DF92EF92FF920F931F93CF93DF936C0117
:1001D0007B018B01040F151FEB015E01AE18BF08F8
:1001E000C017D10759F06991D601ED91FC910190AA
:1001F000F081E02DC6010995892B79F7C501DF91C2
:10020000CF911F910F91FF90EF90DF90CF90BF9013
:10021000AF900895FC01538D448D252F30E0842F3D
:1002200090E0821B930B541710F0CF96089501971E
:100230000895FC01918D828D981761F0A28DAE0F0B
:10024000BF2FB11D5D968C91928D9F5F9F73928F92
:1002500090E008958FEF9FEF0895FC01918D828DBE
:10026000981731F0828DE80FF11D858D90E008958B
:100270008FEF9FEF0895FC01918D228D892F90E0E3
:10028000805C9F4F821B91098F739927089582E6A6
:1002900092E00E943B0121E0892B09F420E0822FAB
:1002A000089580E090E0892B29F00E944701811198
:1002B0000C9400000895FC01A48DA80FB92FB11D66
:1002C000A35ABF4F2C91848D90E001968F7399278C
:1002D000848FA689B7892C93A089B1898C9183706A
:1002E00080648C93938D848D981306C00288F38963
:1002F000E02D80818F7D80830895EF92FF920F9390
:100300001F93CF93DF93EC0181E0888F9B8D8C8DC1
:1003100098131AC0E889F989808185FF15C09FB7B5
:10032000F894EE89FF896083E889F9898081837078
:10033000806480839FBF81E090E0DF91CF911F9127
:100340000F91FF90EF900895F62E0B8D10E00F5F48
:100350001F4F0F731127E02E8C8D8E110CC00FB61E
:1003600007FCFACFE889F989808185FFF5CFCE01B6
:100370000E945B01F1CFEB8DEC0FFD2FF11DE35AD5
:10038000FF4FF0829FB7F8940B8FEA89FB89808139
:100390008062CFCFCF93DF93EC01888D8823B9F0B3
:1003A000AA89BB89E889F9898C9185FD03C0808180
:1003B00086FD0DC00FB607FCF7CF8C9185FFF2CFFD
:1003C000808185FFEDCFCE010E945B01E9CFDF91F7
:1003D000CF910895833081F028F4813099F08230F4
:1003E000A9F008958730A9F08830C9F08430B1F4BD
:1003F000809180008F7D03C0809180008F778093F3
:100400008000089584B58F7784BD089584B58F7D6D
:10041000FBCF8091B0008F778093B00008958091DA
:10042000B0008F7DF9CF1F93CF93DF93282F30E05B
:10043000F901E255FF4F8491F901E656FF4FD4913F
:10044000F901EA57FF4FC491CC23A9F0162F81116F
:100450000E94EA01EC2FF0E0EE0FFF1FEE58FF4F75
:10046000A591B4918FB7F894EC91111108C0D09573
:10047000DE23DC938FBFDF91CF911F910895DE2B98
:10048000F8CFCF93DF93282F30E0F901E255FF4FEB
:100490008491F901E656FF4FD491F901EA57FF4FD5
:1004A000C491CC23A1F081110E94EA01EC2FF0E06D
:1004B000EE0FFF1FE458FF4FA591B491EC91ED238F
:1004C00081E090E009F480E0DF91CF91089580E031
:1004D00090E0FACF3FB7F89480911B0190911C01F6
:1004E000A0911D01B0911E0126B5A89B05C02F3F0C
:1004F00019F00196A11DB11D3FBFBA2FA92F982F4A
:100500008827BC01CD01620F711D811D911D42E044
:10051000660F771F881F991F4A95D1F70895089590
:1005200083B78E7F83BFE898E0E0F1E08FE892E048
:1005300091838083E9989383828308950F931F9317
:10054000CF93C82F8B0161E00E948C0061E0012BEA
:1005500009F460E08C2FCF911F910F910C9413023E
:10056000CF92DF92EF92FF9224E0440F551F2A951D
:10057000E1F75527C12CD62EF12CE12CC40ED51E47
:10058000E11CF11CB0E0A0E0DC0199278827882756
:100590009927BB27C80ED91EEA1EFB1EC701B6014C
:1005A00025E030E040E050E00E94C90825E030E05E
:1005B000C901861B970BC80ED91EE11CF11CB7019F
:1005C0008827992782E692E00E947D0199278F2D46
:1005D0007E2D6D2D82E692E00E947D016C2D82E6DB
:1005E00092E0FF90EF90DF90CF900C947D011F92EE
:1005F0000F920FB60F9211242F933F934F935F9357
:100600006F937F938F939F93AF93BF93EF93FF93DA
:1006100082E692E00E945B01FF91EF91BF91AF9162
:100620009F918F917F916F915F914F913F912F910A
:100630000F900FBE0F901F9018951F920F920FB63C
:100640000F9211242F938F939F93EF93FF93E09139
:100650007202F09173028081E0917802F091790248
:1006600082FD1BC0908180917B028F5F8F732091F0
:100670007C02821741F0E0917B02F0E0EE59FD4FE1
:10068000958F80937B02FF91EF919F918F912F9196
:100690000F900FBE0F901F9018958081F4CF1F927E
:1006A0000F920FB60F9211242F933F938F939F9326
:1006B000AF93BF938091170190911801A0911901F8
:1006C000B0911A013091160123E0230F2D3758F510
:1006D0000196A11DB11D20931601809317019093DF
:1006E0001801A0931901B0931A0180911B019091F8
:1006F0001C01A0911D01B0911E010196A11DB11D0B
:1007000080931B0190931C01A0931D01B0931E01C7
:10071000BF91AF919F918F913F912F910F900FBEFD
:100720000F901F90189526E8230F0296A11DB11D6A
:10073000D2CF1F920F920FB60F9211242F933F9397
:100740004F935F936F937F938F939F93AF93BF93D9
:10075000EF93FF93E0910201F09103010995FF915E
:10076000EF91BF91AF919F918F917F916F915F9129
:100770004F913F912F910F900FBE0F901F901895A2
:100780001F920F920FB60F9211242F933F934F9306
:100790005F936F937F938F939F93AF93BF93EF93E9
:1007A000FF93E0910001F09101010995FF91EF9114
:1007B000BF91AF919F918F917F916F915F914F9179
:1007C0003F912F910F900FBE0F901F901895789426
:1007D00084B5826084BD84B5816084BD85B5826046
:1007E00085BD85B5816085BD80916E0081608093F7
:1007F0006E00109281008091810082608093810060
:10080000809181008160809381008091800081606F
:10081000809380008091B10084608093B1008091CA
:10082000B00081608093B00080917A0084608093F2
:100830007A0080917A00826080937A0080917A00B9
:10084000816080937A0080917A00806880937A003A
:100850001092C100A0917202B0917302E2E0EC9399
:10086000A0916E02B0916F021C92A0917002B091A3
:10087000710220E12C9310927A02A0917602B0913D
:10088000770296E09C93A0917402B09175028C91CE
:1008900080618C93A0917402B09175028C918860F4
:1008A0008C93A0917402B09175028C9180688C93A6
:1008B000A0917402B09175028C918F7D8C934DE064
:1008C000442E512C612C712C40921F01509220011A
:1008D000609221017092220137E13093230110923E
:1008E000240110922501109226011092270181E027
:1008F000809328014CE050E060E070E040932901D3
:1009000050932A0160932B0170932C01E0932D01E9
:1009100010922E0110922F0110923001109231018D
:1009200083E08093320110923301109234011092CF
:1009300035011092360184E080933701EFE08E2E6E
:10094000912CA12CB12C8092380190923901A09267
:100950003A01B0923B0185E080933C01F6E0CF2E56
:10096000D12CE12CF12CC0923D01D0923E01E092BD
:100970003F01F09240019093410119E0E12EF12CEA
:1009800000E010E0E0924201F09243010093440144
:100990001093450187E08093460188E090E0A0E055
:1009A000B0E08093470190934801A0934901B09330
:1009B0004A0180934B0110924C0110924D0110920C
:1009C0004E0110924F0189E0809350011092510125
:1009D0001092520110925301109254018AE08093B8
:1009E0005501109256011092570110925801109221
:1009F00059018BE080935A0110925B0110925C01C7
:100A000010925D0110925E018CE080935F01109264
:100A100060011092610110926201109263018DE0F9
:100A20008093640110926501109266011092670133
:100A3000109268018EE0809369018EE090E0A0E062
:100A4000B0E080936A0190936B01A0936C01B09326
:100A50006D01EFE0E0936E01C5E0CC2ED12CE12CCE
:100A6000F12CC0926F01D0927001E0927101F0926E
:100A70007201209373018093740190937501A09388
:100A80007601B093770121E12093780110927901EA
:100A900010927A0110927B0110927C0122E1209346
:100AA0007D0140927E0150927F01609280017092A0
:100AB000810123E12093820110928301109284012D
:100AC000109285011092860124E1209387014093C2
:100AD00088015093890160938A0170938B0125E10D
:100AE00020938C011BE0E12EF12C00E010E0E0925D
:100AF0008D01F0928E0100938F011093900126E1F9
:100B0000209391014092920150929301609294013E
:100B100070929501309396014093970150939801FC
:100B20006093990170939A0128E120939B01409270
:100B30009C0150929D0160929E0170929F0129E15B
:100B40002093A00107E010E020E030E00093A10135
:100B50001093A2012093A3013093A4012AE12093D2
:100B6000A5018092A6019092A701A092A801B0923F
:100B7000A9012BE12093AA011092AB011092AC01C4
:100B80001092AD011092AE012CE12093AF0102E072
:100B900010E020E030E00093B0011093B101209309
:100BA000B2013093B301EDE1E093B401EAE0CE2E5F
:100BB000D12CE12CF12CC092B501D092B601E0927B
:100BC000B701F092B801EEE1E093B9014093BA01A8
:100BD0005093BB016093BC017093BD014FE1409302
:100BE000BE014BE050E060E070E04093BF015093E5
:100BF000C0016093C1017093C20140E24093C30100
:100C00008092C4019092C501A092C601B092C70122
:100C100041E24093C8018093C9019093CA01A09317
:100C2000CB01B093CC0142E24093CD018093CE0141
:100C30009093CF01A093D001B093D10143E24093B0
:100C4000D2011092D3011092D4011092D5011092CA
:100C5000D60144E24093D701F7E0CF2ED12CE12C0E
:100C6000F12CC092D801D092D901E092DA01F09231
:100C7000DB0145E24093DC0141E050E060E070E0E0
:100C80004093DD015093DE016093DF017093E0013A
:100C9000E6E2E093E101C8E0CC2ED12CE12CF12C6E
:100CA000C092E201D092E301E092E401F092E5010A
:100CB000E7E2E093E601D9E0CD2ED12CE12CF12C36
:100CC000C092E701D092E801E092E901F092EA01D6
:100CD000E8E2E093EB011092EC011092ED0110922A
:100CE000EE011092EF01E9E2E093F001E0E1CE2E97
:100CF000D12CE12CF12CC092F101D092F201E092C2
:100D0000F301F092F401EAE2E093F5011092F601AA
:100D10001092F7011092F8011092F901EBE2E093C2
:100D2000FA018092FB019092FC01A092FD01B09229
:100D3000FE01ECE2E093FF01F5E0CF2ED12CE12C97
:100D4000F12CC0920002D0920102E0920202F092D5
:100D50000302EDE2E0930402809305029093060201
:100D6000A0930702B09308028EE28093090286E006
:100D700090E0A0E0B0E080930A0290930B02A09371
:100D80000C02B0930D028FE280930E0280920F024C
:100D900090921002A0921102B092120280E380930E
:100DA000130200931402109315022093160230933D
:100DB000170281E38093180282E190E0A0E0B0E0A6
:100DC0008093190290931A02A0931B02B0931C0205
:100DD00082E380931D0210921E0210921F02109255
:100DE00020021092210283E38093220281E190E0AD
:100DF000A0E0B0E08093230290932402A093250208
:100E0000B093260284E380932702A3E0CA2ED12C5C
:100E1000E12CF12CC0922802D0922902E0922A0201
:100E2000F0922B0285E380932C0210922D021092F7
:100E30002E0210922F021092300286E3809331022C
:100E400084E090E0A0E0B0E080933202909333021F
:100E5000A0933402B0933502E7E3E0933602409268
:100E60003702509238026092390270923A02E8E3F7
:100E7000E0933B02C0923C02D0923D02E0923E02DF
:100E8000F0923F02E9E3E0934002C3E1CC2ED12C83
:100E9000E12CF12CC0924102D0924202E092430236
:100EA000F0924402EAE3E093450210924602109267
:100EB00047021092480210924902EBE3E0934A0283
:100EC00040934B0250934C0260934D0270934E023C
:100ED0004CE340934F020093500210935102209331
:100EE0005202309353022DE3209354028093550213
:100EF00090935602A0935702B09358028EE38093CA
:100F00005902D5E04D2E512C612C712C15E0312E5B
:100F100082E692E00E943B01181619060CF09BC075
:100F20000E946A024B015C0132E3C32ED12CE12CFA
:100F3000F12C0E946A02681979098A099B09683EA6
:100F4000734081059105A8F391E0C91AD108E10821
:100F5000F108A8EE8A0EA3E09A1EA11CB11CC114D0
:100F6000D104E104F10429F782E692E00E9419011C
:100F700080935F0282E692E00E94190180936002F2
:100F800082E692E00E941901EC0180936102E090F8
:100F90005F02F09060026F2D70E090E080E0982F8B
:100FA000872F762F66278E296C0F711D811D911D4D
:100FB000A30192010E94C9080E2D10E0AE01552731
:100FC000672B682B692B09F0B4C0C295CF70C09312
:100FD0006102309EF001319EF00D1124E15EFE4F62
:100FE000D0812181EFEFEC0FE73008F0A0C0F0E0F6
:100FF000E450F84F0C94EB08030803081008150898
:101000001B0838083C086F2D70E08D2F922F0E942E
:101010009E024091610250E06091600270E016C053
:1010200062E08D2F0E948C00F4CF6F2D70E044E0C1
:1010300050E0C8010EC060E08D2F0E948C008D2F03
:101040000E944102BC014091610250E080915F0228
:1010500090E00E94B00280E090E0892B09F458CF24
:101060000E944701882309F453CF0E94000050CF0B
:101070008D2F0E94C800E6CF83B7816083BF62E0F6
:101080008E2D0E948C0002301105D1F400E912E08F
:101090001093010100930001809169008C7F80937F
:1010A0006900E89A33E0F316B1F13F15C8F041E06A
:1010B000F41619F052E0F516F1F083B7817F1EC0E7
:1010C0000330110579F720E932E0309303012093D2
:1010D000020180916900837F80936900E99AE2CFE1
:1010E00065E0F61601F1F616D0F076E0F712E5CFDE
:1010F00083B78E6003C083B7817F826083BF809196
:101100006E008E7F80936E00889580916E00816066
:1011100080936E007ECF83B7817F8460EFCF83B7EB
:10112000817F8660EBCF83B7817F8C60E7CF4C2FC8
:1011300050E06F2D70E07DCFE2E6F2E01382128284
:1011400088EE93E0A0E0B0E084839583A683B78324
:1011500088E091E09183808385EC90E09587848797
:1011600084EC90E09787868780EC90E0918B808B71
:1011700081EC90E0938B828B82EC90E0958B848B5A
:1011800086EC90E0978B868B118E128E138E148EC8
:101190000895A1E21A2EAA1BBB1BFD010DC0AA1FB8
:1011A000BB1FEE1FFF1FA217B307E407F50720F0D0
:1011B000A21BB30BE40BF50B661F771F881F991F4B
:1011C0001A9469F760957095809590959B01AC0194
:1011D000BD01CF010895EE0FFF1F0590F491E02DA2
:1011E0000994F894FFCF8F028F02000000007D0168
:0C11F000DD000A01CA013B0119012D01BC
:107E0000112484B714BE81FFF0D085E080938100F7
:107E100082E08093C00088E18093C10086E0809377
:107E2000C20080E18093C4008EE0C9D0259A86E02C
:107E300020E33CEF91E0309385002093840096BBD3
:107E4000B09BFECF1D9AA8958150A9F7CC24DD24C4
:107E500088248394B5E0AB2EA1E19A2EF3E0BF2EE7
:107E6000A2D0813461F49FD0082FAFD0023811F036
:107E7000013811F484E001C083E08DD089C08234E0
:107E800011F484E103C0853419F485E0A6D080C0E4
:107E9000853579F488D0E82EFF2485D0082F10E0AE
:107EA000102F00270E291F29000F111F8ED06801E7
:107EB0006FC0863521F484E090D080E0DECF843638
:107EC00009F040C070D06FD0082F6DD080E0C81688
:107ED00080E7D80618F4F601B7BEE895C0E0D1E017
:107EE00062D089930C17E1F7F0E0CF16F0E7DF06D8
:107EF00018F0F601B7BEE89568D007B600FCFDCFD4
:107F0000A601A0E0B1E02C9130E011968C91119780
:107F100090E0982F8827822B932B1296FA010C0160
:107F200087BEE89511244E5F5F4FF1E0A038BF0790
:107F300051F7F601A7BEE89507B600FCFDCF97BE46
:107F4000E89526C08437B1F42ED02DD0F82E2BD052
:107F50003CD0F601EF2C8F010F5F1F4F84911BD097
:107F6000EA94F801C1F70894C11CD11CFA94CF0C13
:107F7000D11C0EC0853739F428D08EE10CD085E9AC
:107F80000AD08FE07ACF813511F488E018D01DD067
:107F900080E101D065CF982F8091C00085FFFCCF94
:107FA0009093C60008958091C00087FFFCCF809118
:107FB000C00084FD01C0A8958091C6000895E0E648
:107FC000F0E098E1908380830895EDDF803219F02E
:107FD00088E0F5DFFFCF84E1DECF1F93182FE3DFCA
:107FE0001150E9F7F2DF1F91089580E0E8DFEE27F6
:047FF000FF270994CA
:027FFE00040479
:00000001FF
