:100000000C9462000C9489030C9462030C948A0093
:100010000C948A000C948A000C948A000C948A0038
:100020000C948A000C948A000C948A000C948A0028
:100030000C948A000C948A000C948A000C948A0018
:100040000C94C0020C948A000C9430030C940A03A4
:100050000C948A000C948A000C948A000C948A00F8
:100060000C948A000C948A000000000024002700F1
:100070002A0000000000250028002B0000000000DE
:1000800023002600290004040404040404040202DA
:100090000202020203030303030301020408102007
:1000A0004080010204081020010204081020000012
:1000B0000008000201000003040700000000000027
:1000C0000000FB0411241FBECFEFD8E0DEBFCDBF80
:1000D00011E0A0E0B1E0E4EAFAE002C005900D9280
:1000E000A631B107D9F721E0A6E1B1E001C01D9228
:1000F000AF3BB207E1F710E0C2E6D0E004C02197C1
:10010000FE010E944A05C136D107C9F70E94B0031B
:100110000C9450050C940000CF93DF9390E0FC0109
:10012000E656FF4F24918A579F4FFC018491882304
:10013000C9F090E0880F991FFC01E859FF4FA59185
:10014000B491FC01EE58FF4FC591D49161110DC0DF
:100150009FB7F8948C91209582238C9388812823D3
:1001600028839FBFDF91CF910895623051F49FB7EC
:10017000F8943C91822F809583238C93E8812E2BD9
:10018000EFCF8FB7F894EC912E2B2C938FBFEACF43
:100190008E3008F08E508770806480937C00809150
:1001A0007A00806480937A0080917A0086FDFCCF8B
:1001B00080917800909179000895AF92BF92CF928C
:1001C000DF92EF92FF920F931F93CF93DF936C0117
:1001D0007B018B01040F151FEB015E01AE18BF08F8
:1001E000C017D10759F06991D601ED91FC910190AA
:1001F000F081E02DC6010995892B79F7C501DF91C2
:10020000CF911F910F91FF90EF90DF90CF90BF9013
:10021000AF900895FC01538D448D252F30E0842F3D
:1002200090E0821B930B541710F0CF96089501971E
:100230000895FC01918D828D981761F0A28DAE0F0B
:10024000BF2FB11D5D968C91928D9F5F9F73928F92
:1002500090E008958FEF9FEF0895FC01918D828DBE
:10026000981731F0828DE80FF11D858D90E008958B
:100270008FEF9FEF0895FC01918D228D892F90E0E3
:10028000805C9F4F821B91098F739927089589E1A4
:1002900091E00E943B0121E0892B09F420E0822FAC
:1002A000089580E090E0892B29F00E944701811198
:1002B0000C9400000895FC01A48DA80FB92FB11D66
:1002C000A35ABF4F2C91848D90E001968F7399278C
:1002D000848FA689B7892C93A089B1898C9183706A
:1002E00080648C93938D848D981306C00288F38963
:1002F000E02D80818F7D80830895EF92FF920F9390
:100300001F93CF93DF93EC0181E0888F9B8D8C8DC1
:1003100098131AC0E889F989808185FF15C09FB7B5
:10032000F894EE89FF896083E889F9898081837078
:10033000806480839FBF81E090E0DF91CF911F9127
:100340000F91FF90EF900895F62E0B8D10E00F5F48
:100350001F4F0F731127E02E8C8D8E110CC00FB61E
:1003600007FCFACFE889F989808185FFF5CFCE01B6
:100370000E945B01F1CFEB8DEC0FFD2FF11DE35AD5
:10038000FF4FF0829FB7F8940B8FEA89FB89808139
:100390008062CFCFCF93DF93EC01888D8823B9F0B3
:1003A000AA89BB89E889F9898C9185FD03C0808180
:1003B00086FD0DC00FB607FCF7CF8C9185FFF2CFFD
:1003C000808185FFEDCFCE010E945B01E9CFDF91F7
:1003D000CF910895833081F028F4813099F08230F4
:1003E000A9F008958730A9F08830C9F08430B1F4BD
:1003F000809180008F7D03C0809180008F778093F3
:100400008000089584B58F7784BD089584B58F7D6D
:10041000FBCF8091B0008F778093B00008958091DA
:10042000B0008F7DF9CF1F93CF93DF93282F30E05B
:10043000F901E255FF4F8491F901E656FF4FD4913F
:10044000F901EA57FF4FC491CC23A9F0162F81116F
:100450000E94EA01EC2FF0E0EE0FFF1FEE58FF4F75
:10046000A591B4918FB7F894EC91111108C0D09573
:10047000DE23DC938FBFDF91CF911F910895DE2B98
:10048000F8CFCF93DF93282F30E0F901E255FF4FEB
:100490008491F901E656FF4FD491F901EA57FF4FD5
:1004A000C491CC23A1F081110E94EA01EC2FF0E06D
:1004B000EE0FFF1FE458FF4FA591B491EC91ED238F
:1004C00081E090E009F480E0DF91CF91089580E031
:1004D00090E0FACF089583B78E7F83BFE898E0E07D
:1004E000F1E08AE692E091838083E99893838283A6
:1004F0000895CF92DF92EF92FF9224E0440F551FB0
:100500002A95E1F75527C12CD62EF12CE12CC40EEB
:10051000D51EE11CF11CB0E0A0E0DC019927882782
:1005200088279927BB27C80ED91EEA1EFB1EC701C4
:10053000B60125E030E040E050E00E94280525E0CB
:1005400030E0C901861B970BC80ED91EE11CF11CB7
:10055000B7018827992789E191E00E947D019927B9
:100560008F2D7E2D6D2D89E191E00E947D016C2DF6
:1005700089E191E0FF90EF90DF90CF900C947D01A6
:100580001F920F920FB60F9211242F933F938F93C8
:100590009F93AF93BF938091BB019091BC01A091B9
:1005A000BD01B091BE013091BA0123E0230F2D3778
:1005B00058F50196A11DB11D2093BA018093BB018E
:1005C0009093BC01A093BD01B093BE018091B60190
:1005D0009091B701A091B801B091B9010196A11D08
:1005E000B11D8093B6019093B701A093B801B09369
:1005F000B901BF91AF919F918F913F912F910F9032
:100600000FBE0F901F90189526E8230F0296A11D8C
:10061000B11DD2CF1F920F920FB60F9211242F93BC
:100620003F934F935F936F937F938F939F93AF937A
:10063000BF93EF93FF9389E191E00E945B01FF91EB
:10064000EF91BF91AF919F918F917F916F915F914A
:100650004F913F912F910F900FBE0F901F901895C3
:100660001F920F920FB60F9211242F938F939F9387
:10067000EF93FF93E0912901F0912A018081E091AD
:100680002F01F091300182FD1BC0908180913201D9
:100690008F5F8F7320913301821741F0E091320117
:1006A000F0E0E75EFE4F958F80933201FF91EF916E
:1006B0009F918F912F910F900FBE0F901F901895C3
:1006C0008081F4CF1F920F920FB60F9211242F93B7
:1006D0003F934F935F936F937F938F939F93AF93CA
:1006E000BF93EF93FF93E0910201F091030109950D
:1006F000FF91EF91BF91AF919F918F917F916F91FA
:100700005F914F913F912F910F900FBE0F901F90CF
:1007100018951F920F920FB60F9211242F933F93AB
:100720004F935F936F937F938F939F93AF93BF93F9
:10073000EF93FF93E0910001F09101010995FF9182
:10074000EF91BF91AF919F918F917F916F915F9149
:100750004F913F912F910F900FBE0F901F901895C2
:10076000789484B5826084BD84B5816084BD85B58C
:10077000826085BD85B5816085BD80916E00816098
:1007800080936E001092810080918100826080933E
:100790008100809181008160809381008091800040
:1007A0008160809380008091B10084608093B1006B
:1007B0008091B00081608093B00080917A00846065
:1007C00080937A0080917A00826080937A00809191
:1007D0007A00816080937A0080917A0080688093AB
:1007E0007A001092C100E0912901F0912A0182E083
:1007F0008083E0912501F09126011082E09127018C
:10080000F091280180E1808310923101E0912D0167
:10081000F0912E0186E08083E0912B01F0912C0174
:10082000808180618083E0912B01F0912C01808197
:1008300088608083E0912B01F0912C018081806899
:100840008083E0912B01F0912C0180818F7D80834A
:1008500035E0432E512C612C712C40E0A42E40E059
:10086000B42E5BE6E52E52E0F52E89E191E00E9480
:100870003B010397BCF189E191E00E94190180934B
:10088000160189E191E00E9419018093170189E125
:1008900091E00E941901C82F80931801D091160190
:1008A00010911701612F70E090E080E0982F872F62
:1008B000762F66278D2B6C0F711D811D911DA30155
:1008C00092010E942805672B682B692B59F4C29569
:1008D000CF70C0931801C33089F180F4C13029F181
:1008E000C23019F1A114B10409F4BFCF0E9447012D
:1008F000882309F4BACF0E940000B7CFC63019F19F
:10090000C73029F1C53071F760E08D2F0E948C004F
:100910008D2F0E944102BC014091180150E080914E
:10092000160190E00E947902DDCF61E08D2F0E94D8
:100930008C0061E08D2F0E941302D4CF62E08D2FD6
:100940000E948C00CFCF8D2F0E94C800E4CFCD2E07
:10095000D12C83B7816083BF62E08D2F0E948C0011
:1009600082E0C816D104A1F4F0920101E0920001E6
:10097000809169008C7F80936900E89A133079F147
:10098000B0F4113011F01230D1F083B7817F1AC06A
:1009900083E0C816D10491F7F0920301E0920201BE
:1009A00080916900837F80936900E99AE7CF1530D1
:1009B000F1F0C8F0163049F783B78E6003C083B7F3
:1009C000817F826083BF80916E008E7F80936E00F6
:1009D000889580916E00816080936E0083CF83B78D
:1009E000817F8460EFCF83B7817F8660EBCF83B751
:1009F000817F8C60E7CFE9E1F1E01382128288EE1B
:100A000093E0A0E0B0E084839583A683B78388E079
:100A100091E09183808385EC90E09587848784ECD6
:100A200090E09787868780EC90E0918B808B81ECBB
:100A300090E0938B828B82EC90E0958B848B86EC9C
:100A400090E0978B868B118E128E138E148E0895E4
:100A5000A1E21A2EAA1BBB1BFD010DC0AA1FBB1FC2
:100A6000EE1FFF1FA217B307E407F50720F0A21B34
:100A7000B30BE40BF50B661F771F881F991F1A94A1
:100A800069F760957095809590959B01AC01BD01CB
:100A9000CF010895EE0FFF1F0590F491E02D09940A
:040AA000F894FFCFF8
:100AA4006A026A02000000007D01DD000A01CA0139
:060AB4003B0119012D01B8
:00000001FF
