:100000000C9462000C94AB030C9484030C948A004F
:100010000C948A000C948A000C948A000C948A0038
:100020000C948A000C948A000C948A000C948A0028
:100030000C948A000C948A000C948A000C948A0018
:100040000C943A030C948A000C9408030C94E2027A
:100050000C948A000C948A000C948A000C948A00F8
:100060000C948A000C948A000000000024002700F1
:100070002A0000000000250028002B0000000000DE
:1000800023002600290004040404040404040202DA
:100090000202020203030303030301020408102007
:1000A0004080010204081020010204081020000012
:1000B0000008000201000003040700000000000027
:1000C00000000F0911241FBECFEFD8E0DEBFCDBF67
:1000D00011E0A0E0B1E0ECECF2E102C005900D927D
:1000E000A631B107D9F723E0A6E1B1E001C01D9226
:1000F000A130B207E1F710E0C2E6D0E004C02197DA
:10010000FE010E945E09C136D107C9F70E94D203E1
:100110000C9464090C940000AF92BF92CF92DF92CE
:10012000EF92FF920F931F93CF93DF936C017B01AC
:100130008B01040F151FEB015E01AE18BF08C0173D
:10014000D10759F06991D601ED91FC910190F081B0
:10015000E02DC6010995892B79F7C501DF91CF9173
:100160001F910F91FF90EF90DF90CF90BF90AF90D5
:100170000895FC01538D448D252F30E0842F90E0AD
:10018000821B930B541710F0CF9608950197089592
:10019000FC01918D828D981761F0A28DAE0FBF2F5B
:1001A000B11D5D968C91928D9F5F9F73928F90E0B1
:1001B00008958FEF9FEF0895FC01918D828D981720
:1001C00031F0828DE80FF11D858D90E008958FEF5D
:1001D0009FEF0895FC01918D228D892F90E0805C26
:1001E0009F4F821B91098F739927089584E692E0AF
:1001F0000E94EA0021E0892B09F420E0822F089573
:1002000080E090E0892B29F00E94F60081110C9487
:1002100000000895FC01A48DA80FB92FB11DA35AA9
:10022000BF4F2C91848D90E001968F739927848F16
:10023000A689B7892C93A089B1898C918370806439
:100240008C93938D848D981306C00288F389E02DDA
:1002500080818F7D80830895EF92FF920F931F938B
:10026000CF93DF93EC0181E0888F9B8D8C8D981369
:100270001AC0E889F989808185FF15C09FB7F89475
:10028000EE89FF896083E889F989808183708064C1
:1002900080839FBF81E090E0DF91CF911F910F910C
:1002A000FF90EF900895F62E0B8D10E00F5F1F4F1B
:1002B0000F731127E02E8C8D8E110CC00FB607FC2A
:1002C000FACFE889F989808185FFF5CFCE010E94B8
:1002D0000A01F1CFEB8DEC0FFD2FF11DE35AFF4F1B
:1002E000F0829FB7F8940B8FEA89FB898081806246
:1002F000CFCFCF93DF93EC01888D8823B9F0AA8903
:10030000BB89E889F9898C9185FD03C0808186FDD0
:100310000DC00FB607FCF7CF8C9185FFF2CF80811F
:1003200085FFEDCFCE010E940A01E9CFDF91CF9189
:100330000895833081F028F4813099F08230A9F05B
:1003400008958730A9F08830C9F08430B1F48091E5
:1003500080008F7D03C0809180008F778093800024
:10036000089584B58F7784BD089584B58F7DFBCFC4
:100370008091B0008F778093B00008958091B00095
:100380008F7DF9CFCF93DF93282F30E0F901E2552D
:10039000FF4F8491F901E656FF4FD491F901EA57D6
:1003A000FF4FC491CC23A1F081110E949901EC2F41
:1003B000F0E0EE0FFF1FE458FF4FA591B491EC91D0
:1003C000ED2381E090E009F480E0DF91CF91089582
:1003D00080E090E0FACF1F93CF93DF93282F30E097
:1003E000F901E255FF4F8491F901E656FF4FD49190
:1003F000F901EA57FF4FC491CC23A9F0162F8111C0
:100400000E949901EC2FF0E0EE0FFF1FEE58FF4F16
:10041000A591B4918FB7F894EC91111108C0D095C3
:10042000DE23DC938FBFDF91CF911F910895DE2BE8
:10043000F8CFCF93DF9390E0FC01E656FF4F249175
:100440008A579F4FFC0184918823C9F090E0880F60
:10045000991FFC01E859FF4FA591B491FC01EE589A
:10046000FF4FC591D49161110DC09FB7F8948C9145
:10047000209582238C938881282328839FBFDF9136
:10048000CF910895623051F49FB7F8943C91822F38
:10049000809583238C93E8812E2BEFCF8FB7F89430
:1004A000EC912E2B2C938FBFEACF3FB7F89480911D
:1004B0001B0190911C01A0911D01B0911E0126B558
:1004C000A89B05C02F3F19F00196A11DB11D3FBF8C
:1004D000BA2FA92F982F8827BC01CD01620F711D5B
:1004E000811D911D42E0660F771F881F991F4A9555
:1004F000D1F70895089583B78E7F83BFE898E0E031
:10050000F1E08AE792E091838083E9989383828384
:1005100008950F931F93CF93C82F8B0161E00E9422
:10052000190261E0012B09F460E08C2FCF911F913B
:100530000F910C94EB01CF92DF92EF92FF9224E0A7
:10054000440F551F2A95E1F75527C12CD62EF12CC3
:10055000E12CC40ED51EE11CF11CB0E0A0E0DC01D2
:100560009927882788279927BB27C80ED91EEA1EF6
:10057000FB1EC701B60125E030E040E050E00E94DC
:100580003C0925E030E0C901861B970BC80ED91E37
:10059000E11CF11CB7018827992784E692E00E94AC
:1005A0002C0199278F2D7E2D6D2D84E692E00E94DF
:1005B0002C016C2D84E692E0FF90EF90DF90CF90BD
:1005C0000C942C011F920F920FB60F9211242F93AF
:1005D0003F934F935F936F937F938F939F93AF93CB
:1005E000BF93EF93FF9384E692E00E940A01FF918C
:1005F000EF91BF91AF919F918F917F916F915F919B
:100600004F913F912F910F900FBE0F901F90189513
:100610001F920F920FB60F9211242F938F939F93D7
:10062000EF93FF93E0917402F09175028081E09165
:100630007A02F0917B0282FD1BC0908180917D0245
:100640008F5F8F7320917E02821741F0E0917D02CF
:10065000F0E0EC59FD4F958F80937D02FF91EF9173
:100660009F918F912F910F900FBE0F901F90189513
:100670008081F4CF1F920F920FB60F9211242F9307
:100680003F938F939F93AF93BF9380911701909166
:100690001801A0911901B0911A013091160123E0BF
:1006A000230F2D3758F50196A11DB11D209316017A
:1006B0008093170190931801A0931901B0931A0128
:1006C00080911B0190911C01A0911D01B0911E0110
:1006D0000196A11DB11D80931B0190931C01A09355
:1006E0001D01B0931E01BF91AF919F918F913F91DA
:1006F0002F910F900FBE0F901F90189526E8230F93
:100700000296A11DB11DD2CF1F920F920FB60F926C
:1007100011242F933F934F935F936F937F938F9306
:100720009F93AF93BF93EF93FF93E0910201F091FA
:1007300003010995FF91EF91BF91AF919F918F9127
:100740007F916F915F914F913F912F910F900FBECD
:100750000F901F9018951F920F920FB60F921124B1
:100760002F933F934F935F936F937F938F939F93B9
:10077000AF93BF93EF93FF93E0910001F0910101DC
:100780000995FF91EF91BF91AF919F918F917F91CB
:100790006F915F914F913F912F910F900FBE0F90EE
:1007A0001F901895789484B5826084BD84B581606B
:1007B00084BD85B5826085BD85B5816085BD80912C
:1007C0006E00816080936E001092810080918100A4
:1007D000826080938100809181008160809381009C
:1007E000809180008160809380008091B10084605E
:1007F0008093B1008091B00081608093B0008091BF
:100800007A00846080937A0080917A00826080937D
:100810007A0080917A00816080937A0080917A00DA
:10082000806880937A001092C100A0917402B09108
:100830007502E2E0EC93A0917002B09171021C92FB
:10084000A0917202B091730220E12C9310927C026D
:10085000A0917802B091790296E09C93A0917602E3
:10086000B09177028C9180618C93A0917602B091C7
:1008700077028C9188608C93A0917602B091770278
:100880008C9180688C93A0917602B09177028C91C4
:100890008F7D8C93ADE04A2E512C612C712C4092AF
:1008A000210150922201609223017092240137E1CC
:1008B00030932501109226011092270110922801F1
:1008C0001092290181E080932A014CE050E060E021
:1008D00070E040932B0150932C0160932D01709395
:1008E0002E01E0932F0110923001109231011092ED
:1008F00032011092330183E080933401109235016C
:1009000010923601109237011092380184E08093E2
:100910003901BFE08B2E912CA12CB12C80923A0191
:1009200090923B01A0923C01B0923D0185E0809302
:100930003E01C6E0CC2ED12CE12CF12CC0923F011F
:10094000D0924001E0924101F09242019093430124
:1009500019E0E12EF12C00E010E0E0924401F09269
:100960004501009346011093470187E080934801B9
:1009700088E090E0A0E0B0E08093490190934A01C4
:10098000A0934B01B0934C0180934D0110924E0106
:1009900010924F01109250011092510189E0809302
:1009A000520110925301109254011092550110926D
:1009B00056018AE080935701109258011092590114
:1009C00010925A0110925B018BE080935C011092AF
:1009D0005D0110925E0110925F01109260018CE047
:1009E0008093610110926201109263011092640180
:1009F000109265018DE0809366011092670110925C
:100A000068011092690110926A018EE080936B0177
:100A10008EE090E0A0E0B0E080936C0190936D01D7
:100A2000A0936E01B0936F01EFE0E093700115E0C9
:100A3000C12ED12CE12CF12CC0927101D092720107
:100A4000E0927301F0927401209375018093760116
:100A500090937701A0937801B093790121E12093DD
:100A60007A0110927B0110927C0110927D0110920C
:100A70007E0122E120937F0140928001509281010A
:100A8000609282017092830123E12093840110928D
:100A9000850110928601109287011092880124E14D
:100AA0002093890140938A0150938B0160938C01BC
:100AB00070938D0125E120938E011BE0E12EF12C36
:100AC00000E010E0E0928F01F0929001009391011C
:100AD0001093920126E12093930140929401509249
:100AE000950160929601709297013093980140931E
:100AF000990150939A0160939B0170939C0128E1A6
:100B000020939D0140929E0150929F016092A0010E
:100B10007092A10129E12093A20107E010E020E0FA
:100B200030E00093A3011093A4012093A50130931A
:100B3000A6012AE12093A7018092A8019092A90121
:100B4000A092AA01B092AB012BE12093AC011092CC
:100B5000AD011092AE011092AF011092B0012CE1E4
:100B60002093B10102E010E020E030E00093B201F8
:100B70001093B3012093B4013093B501EDE1E093FC
:100B8000B601EAE0CE2ED12CE12CF12CC092B701B7
:100B9000D092B801E092B901F092BA01EEE1E0938F
:100BA000BB014093BC015093BD016093BE017093A3
:100BB000BF014FE14093C0014BE050E060E070E0C6
:100BC0004093C1015093C2016093C3017093C4016B
:100BD00040E24093C5018092C6019092C701A09265
:100BE000C801B092C90141E24093CA018093CB0190
:100BF0009093CC01A093CD01B093CE0142E24093FB
:100C0000CF018093D0019093D101A093D201B093F2
:100C1000D30143E24093D4011092D5011092D60142
:100C20001092D7011092D80144E24093D901F7E025
:100C3000CF2ED12CE12CF12CC092DA01D092DB0125
:100C4000E092DC01F092DD0145E24093DE0141E0FB
:100C500050E060E070E04093DF015093E00160936A
:100C6000E1017093E201E6E2E093E301C8E0CC2EFB
:100C7000D12CE12CF12CC092E401D092E501E0925C
:100C8000E601F092E701E7E2E093E801D9E0CD2E3A
:100C9000D12CE12CF12CC092E901D092EA01E09232
:100CA000EB01F092EC01E8E2E093ED011092EE012D
:100CB0001092EF011092F0011092F101E9E2E0933D
:100CC000F201E0E1CE2ED12CE12CF12CC092F30107
:100CD000D092F401E092F501F092F601EAE2E0939D
:100CE000F7011092F8011092F9011092FA01109296
:100CF000FB01EBE2E093FC018092FD019092FE018A
:100D0000A092FF01B0920002ECE2E0930102F5E054
:100D1000CF2ED12CE12CF12CC0920202D0920302F2
:100D2000E0920402F0920502EDE2E0930602809365
:100D3000070290930802A0930902B0930A028EE280
:100D400080930B0286E090E0A0E0B0E080930C027C
:100D500090930D02A0930E02B0930F028FE2809346
:100D600010028092110290921202A0921302B0928D
:100D7000140280E380931502009316021093170269
:100D8000209318023093190281E380931A0282E1C2
:100D900090E0A0E0B0E080931B0290931C02A0932F
:100DA0001D02B0931E0282E380931F021092200264
:100DB00010922102109222021092230283E3809368
:100DC000240281E190E0A0E0B0E0809325029093BE
:100DD0002602A0932702B093280284E3809329027D
:100DE000A3E0CA2ED12CE12CF12CC0922A02D09281
:100DF0002B02E0922C02F0922D0285E380932E02CA
:100E000010922F0210923002109231021092320290
:100E100086E38093330284E090E0A0E0B0E080932A
:100E2000340290933502A0933602B0933702E7E381
:100E3000E09338024092390250923A0260923B02AB
:100E400070923C02E8E3E0933D02C0923E02D092F1
:100E50003F02E0924002F0924102E9E3E093420255
:100E6000C3E1CC2ED12CE12CF12CC0924302D092C4
:100E70004402E0924502F0924602EAE3E093470220
:100E8000109248021092490210924A0210924B02AC
:100E9000EBE3E0934C0240934D0250934E0260937B
:100EA0004F02709350024CE3409351020093520260
:100EB0001093530220935402309355022DE3209354
:100EC00056028093570290935802A0935902B09310
:100ED0005A028EE380935B02D5E04D2E512C612C9B
:100EE000712CCBE7D2E022242394312C84E692E0CB
:100EF0000E94EA00181619060CF026C10E9455023D
:100F00004B015C01F2E3CF2ED12CE12CF12C0E949D
:100F10005502681979098A099B09683E7340810561
:100F20009105A8F391E0C91AD108E108F108A8EEEB
:100F30008A0EA3E09A1EA11CB11CC114D104E104C5
:100F4000F10429F784E692E00E94C80080936102D0
:100F500084E692E00E94C8008093620284E692E0F8
:100F60000E94C800E82E80936302D0906102109125
:100F70006202612F70E090E080E0982F872F762F3B
:100F800066278D296E0D711D811D911DA301920192
:100F90000E943C09672B682B692B09F0D5C04E2DA8
:100FA00042954F70409363022D2D30E055E0C52EE1
:100FB000C29EF001C39EF00D1124EF5DFE4F008133
:100FC000802F9181EFEFE40F17FF13C030922001C3
:100FD00020921F01E73008F01EC1F0E0EE50F84FFC
:100FE0000C945E090C082208390842084808660873
:100FF000B1081092200110921F01E73008F00BC1D8
:10100000F0E0EB5FF74F0C945E092E0822083308DE
:10101000420848086608B10820911F01309120015C
:10102000232BE1F00093610210926202409163026F
:1010300050E06091620270E08091610290E00E9455
:101040009B0282C020911F0130912001232B31F09F
:101050000093610282E080936202E8CF612F70E02A
:101060000E948902E3CF80911F0190912001892B7A
:1010700021F00093610283E0EECF62E0802F0E94B6
:101080001902D4CF612F70E044E050E0C901D7CFFE
:1010900080911F0190912001892B61F000936102E2
:1010A00035E0D32ED092620245E050E065E070E07A
:1010B000802FC4CF60E0802F0E941902802F0E94F1
:1010C000C201BC014091630250E0B6CF80911F0184
:1010D00090912001892B59F00093610226E0E22EC5
:1010E000E092620246E050E066E070E0E1CF60E04E
:1010F000802F0E94190282EF800F0E3008F4802F9B
:101100008770806480937C0080917A0080648093F3
:101110007A0080917A0086FDFCCF60917800709112
:1011200079004091630250E07595679575956795D4
:101130008091610290E00E949B0260E0802F0E94FB
:101140001902802F0E94C20100E010E0012B09F477
:10115000CDCE0E94F600882309F4C8CE0E9400007C
:10116000C5CE80911F0190912001892B39F0009309
:10117000610287E0F82EF0926202E6CF83B78160C9
:1011800083BF62E082E00E94190262E083E00E9475
:101190001902D0930301C093020180916900837FFB
:1011A00080936900E99AD0930101C0930001809176
:1011B00069008C7F80936900E89A133001F138F45C
:1011C000113011F0123059F083B7817F0BC0153008
:1011D000F1F0C8F01630C1F783B78E6003C083B753
:1011E000817F826083BF80916E008E7F80936E00CE
:1011F000889580916E00816080936E00A5CF83B743
:10120000817F8460EFCF83B7817F8660EBCF83B728
:10121000817F8C60E7CF50E0612F70E037CFE4E64C
:10122000F2E01382128288EE93E0A0E0B0E08483C3
:101230009583A683B78388E091E09183808385ECD2
:1012400090E09587848784EC90E09787868780EC90
:1012500090E0918B808B81EC90E0938B828B82EC81
:1012600090E0958B848B86EC90E0978B868B118E2B
:10127000128E138E148E0895A1E21A2EAA1BBB1B88
:10128000FD010DC0AA1FBB1FEE1FFF1FA217B30752
:10129000E407F50720F0A21BB30BE40BF50B661F68
:1012A000771F881F991F1A9469F76095709580952C
:1012B00090959B01AC01BD01CF010895EE0FFF1F7A
:0C12C0000590F491E02D0994F894FFCF04
:1012CC007A027A02000000002C018C00B90079012E
:0612DC00EA00C800DC007E
:00000001FF
