:100000000C9462000C94AF030C9488030C948A0047
:100010000C948A000C948A000C948A000C948A0038
:100020000C948A000C948A000C948A000C948A0028
:100030000C948A000C948A000C948A000C948A0018
:100040000C943E030C948A000C940C030C94E6026E
:100050000C948A000C948A000C948A000C948A00F8
:100060000C948A000C948A000000000023002600F3
:10007000290000000000240027002A0000000000E2
:10008000250028002B0004040404040404040202D4
:100090000202020203030303030301020408102007
:1000A0004080010204081020010204081020000012
:1000B0000008000201000003040700000000000027
:1000C0000000F10811241FBECFEFD8E0DEBFCDBF86
:1000D00011E0A0E0B1E0E0E9F2E102C005900D928C
:1000E000A631B107D9F723E0A6E1B1E001C01D9226
:1000F000A130B207E1F710E0C2E6D0E004C02197DA
:10010000FE010E944009C136D107C9F70E94D603FB
:100110000C9446090C940000AF92BF92CF92DF92EC
:10012000EF92FF920F931F93CF93DF936C017B01AC
:100130008B01040F151FEB015E01AE18BF08C0173D
:10014000D10759F06991D601ED91FC910190F081B0
:10015000E02DC6010995892B79F7C501DF91CF9173
:100160001F910F91FF90EF90DF90CF90BF90AF90D5
:100170000895FC01538D448D252F30E0842F90E0AD
:10018000821B930B541710F0CF9608950197089592
:10019000FC01918D828D981761F0A28DAE0FBF2F5B
:1001A000B11D5D968C91928D9F5F9F73928F90E0B1
:1001B00008958FEF9FEF0895FC01918D828D981720
:1001C00031F0828DE80FF11D858D90E008958FEF5D
:1001D0009FEF0895FC01918D228D892F90E0805C26
:1001E0009F4F821B91098F739927089584E692E0AF
:1001F0000E94EA0021E0892B09F420E0822F089573
:1002000080E090E0892B29F00E94F60081110C9487
:1002100000000895FC01A48DA80FB92FB11DA35AA9
:10022000BF4F2C91848D90E001968F739927848F16
:10023000A689B7892C93A089B1898C918370806439
:100240008C93938D848D981306C00288F389E02DDA
:1002500080818F7D80830895EF92FF920F931F938B
:10026000CF93DF93EC0181E0888F9B8D8C8D981369
:100270001AC0E889F989808185FF15C09FB7F89475
:10028000EE89FF896083E889F989808183708064C1
:1002900080839FBF81E090E0DF91CF911F910F910C
:1002A000FF90EF900895F62E0B8D10E00F5F1F4F1B
:1002B0000F731127E02E8C8D8E110CC00FB607FC2A
:1002C000FACFE889F989808185FFF5CFCE010E94B8
:1002D0000A01F1CFEB8DEC0FFD2FF11DE35AFF4F1B
:1002E000F0829FB7F8940B8FEA89FB898081806246
:1002F000CFCFCF93DF93EC01888D8823B9F0AA8903
:10030000BB89E889F9898C9185FD03C0808186FDD0
:100310000DC00FB607FCF7CF8C9185FFF2CF80811F
:1003200085FFEDCFCE010E940A01E9CFDF91CF9189
:100330000895833081F028F4813099F08230A9F05B
:1003400008958730A9F08830C9F08430B1F48091E5
:1003500080008F7D03C0809180008F778093800024
:10036000089584B58F7784BD089584B58F7DFBCFC4
:100370008091B0008F778093B00008958091B00095
:100380008F7DF9CF1F93CF93DF93282F30E0F901B2
:10039000E255FF4F8491F901E656FF4FD491F901E0
:1003A000EA57FF4FC491CC23A9F0162F81110E9468
:1003B0009901EC2FF0E0EE0FFF1FE458FF4FA591DD
:1003C000B4918FB7F894EC91111108C0D095DE2349
:1003D000DC938FBFDF91CF911F910895DE2BF8CF73
:1003E000CF93DF9390E0FC01E656FF4F24918A57AC
:1003F0009F4FFC0184918823C9F090E0880F991FDA
:10040000FC01EE58FF4FA591B491FC01E458FF4F59
:10041000C591D49161110DC09FB7F8948C9120952E
:1004200082238C938881282328839FBFDF91CF91DB
:100430000895623051F49FB7F8943C91822F8095D3
:1004400083238C93E8812E2BEFCF8FB7F894EC9118
:100450002E2B2C938FBFEACF3FB7F89480911B01CE
:1004600090911C01A0911D01B0911E0126B5A89B81
:1004700005C02F3F19F00196A11DB11D3FBFBA2F36
:10048000A92F982F8827BC01CD01620F711D811DF6
:10049000911D42E0660F771F881F991F4A95D1F77B
:1004A0000895089583B78E7F83BFE898E0E0F1E078
:1004B00081E592E091838083E99893838283089514
:1004C000CF93DF93EC0160E00E94F0019E0133279F
:1004D000F901E255FF4F8491F901E656FF4FD4919F
:1004E000F901EA57FF4FC491CC23A1F081110E947A
:1004F0009901EC2FF0E0EE0FFF1FE859FF4FA59197
:10050000B491EC91ED2381E090E009F480E0DF917B
:10051000CF91089580E090E0FACF0F931F93CF938F
:10052000C82F8B0161E00E94F00161E0012B09F40A
:1005300060E08C2FCF911F910F910C94C201CF924C
:10054000DF92EF92FF9224E0440F551F2A95E1F7C6
:100550005527C12CD62EF12CE12CC40ED51EE11C42
:10056000F11CB0E0A0E0DC019927882788279927B3
:10057000BB27C80ED91EEA1EFB1EC701B60125E027
:1005800030E040E050E00E941E0925E030E0C90163
:10059000861B970BC80ED91EE11CF11CB7018827DA
:1005A000992784E692E00E942C0199278F2D7E2DB9
:1005B0006D2D84E692E00E942C016C2D84E692E081
:1005C000FF90EF90DF90CF900C942C011F920F9230
:1005D0000FB60F9211242F933F934F935F936F9316
:1005E0007F938F939F93AF93BF93EF93FF9384E693
:1005F00092E00E940A01FF91EF91BF91AF919F910C
:100600008F917F916F915F914F913F912F910F90BB
:100610000FBE0F901F9018951F920F920FB60F925A
:1006200011242F938F939F93EF93FF93E091740284
:10063000F09175028081E0917A02F0917B0282FD57
:100640001BC0908180917D028F5F8F7320917E020D
:10065000821741F0E0917D02F0E0EC59FD4F958F5B
:1006600080937D02FF91EF919F918F912F910F9039
:100670000FBE0F901F9018958081F4CF1F920F929C
:100680000FB60F9211242F933F938F939F93AF93A5
:10069000BF938091170190911801A0911901B09119
:1006A0001A013091160123E0230F2D3758F50196DA
:1006B000A11DB11D2093160180931701909318017D
:1006C000A0931901B0931A0180911B0190911C0114
:1006D000A0911D01B0911E010196A11DB11D809335
:1006E0001B0190931C01A0931D01B0931E01BF91AB
:1006F000AF919F918F913F912F910F900FBE0F90CF
:100700001F90189526E8230F0296A11DB11DD2CF88
:100710001F920F920FB60F9211242F933F934F9376
:100720005F936F937F938F939F93AF93BF93EF9359
:10073000FF93E0910201F09103010995FF91EF9180
:10074000BF91AF919F918F917F916F915F914F91E9
:100750003F912F910F900FBE0F901F9018951F92F1
:100760000F920FB60F9211242F933F934F935F93E5
:100770006F937F938F939F93AF93BF93EF93FF9369
:10078000E0910001F09101010995FF91EF91BF9176
:10079000AF919F918F917F916F915F914F913F9119
:1007A0002F910F900FBE0F901F901895789484B5DD
:1007B000826084BD84B5816084BD85B5826085BD5D
:1007C00085B5816085BD80916E00816080936E00EB
:1007D00010928100809181008260809381008091DD
:1007E000810081608093810080918000816080938E
:1007F00080008091B10084608093B1008091B0004E
:1008000081608093B00080917A00846080937A0048
:1008100080917A00826080937A0080917A00816072
:1008200080937A0080917A00806880937A00109299
:10083000C100E0917402F091750232E03083E091E2
:100840007002F09171021082A0917202B091730255
:10085000F0E1FC9310927C02A0917802B0917902B1
:1008600026E02C93A0917602B09177028C91806162
:100870008C93A0917602B09177028C9188608C93D2
:10088000A0917602B09177028C9180688C93A091B0
:100890007602B09177028C918F7D8C934DE0C42EBF
:1008A000D12CE12CF12CC0922101D0922201E092B6
:1008B0002301F0922401E7E1E093250182E090E03A
:1008C000A0E0B0E08093260190932701A093280137
:1008D000B093290141E040932A0180932B0190932A
:1008E0002C01A0932D01B0932E0130932F01809302
:1008F000300190933101A0933201B093330133E082
:10090000309334018093350190933601A0933701E1
:10091000B093380134E0309339014FE050E060E0AB
:1009200070E040933A0150933B0160933C01709317
:100930003D0135E030933E0180933F0190934001AB
:10094000A0934101B093420120934301809344015D
:1009500090934501A0934601B093470127E020936F
:1009600048018093490190934A01A0934B01B093B1
:100970004C0128E020934D0180934E0190934F014C
:10098000A0935001B093510129E02093520180932C
:10099000530190935401A0935501B09356012AE05E
:1009A000209357018093580190935901A0935A01C5
:1009B000B0935B012BE020935C0180935D019093E9
:1009C0005E01A0935F01B09360012CE02093610170
:1009D0008093620190936301A0936401B0936501D9
:1009E0002DE0209366018093670190936801A093A6
:1009F0006901B0936A012EE020936B010EE010E0D4
:100A000020E030E000936C0110936D0120936E01A3
:100A100030936F01CFE0C093700180937101909388
:100A20007201A0937301B0937401F09375018093E8
:100A3000760190937701A0937801B0937901F1E169
:100A4000F0937A0180937B0190937C01A0937D01C8
:100A5000B0937E01F2E1F0937F0180938001909347
:100A60008101A0938201B0938301F3E1F0938401AB
:100A70008093850190938601A0938701B0938801AC
:100A8000F4E1F0938901FCE08F2E912CA12CB12C84
:100A900080928A0190928B01A0928C01B0928D017C
:100AA000F5E1F0938E0180938F0190939001A093D4
:100AB0009101B0939201F6E1F0939301C0929401F9
:100AC000D0929501E0929601F0929701E0939801FF
:100AD0008093990190939A01A0939B01B0939C01FC
:100AE000E8E1E0939D0180939E0190939F01A09384
:100AF000A001B093A101E9E1E093A2018093A301D9
:100B00009093A401A093A501B093A601EAE1E0931C
:100B1000A7018093A8019093A901A093AA01B09383
:100B2000AB01EBE1E093AC018093AD019093AE019A
:100B3000A093AF01B093B001ECE1E093B1018093D9
:100B4000B2019093B301A093B401B093B501EDE16C
:100B5000E093B601CAE0CC2ED12CE12CF12CC0924E
:100B6000B701D092B801E092B901F092BA01EEE17A
:100B7000E093BB018093BC019093BD01A093BE01A3
:100B8000B093BF01EFE1E093C001DBE0CD2ED12CAB
:100B9000E12CF12CC092C101D092C201E092C301BC
:100BA000F092C401E0E2E093C5018093C601909306
:100BB000C701A093C801B093C901E1E2E093CA0163
:100BC0000093CB011093CC012093CD013093CE0143
:100BD00022E22093CF018093D0019093D101A09382
:100BE000D201B093D30123E22093D4018093D501A5
:100BF0009093D601A093D701B093D80124E220931B
:100C0000D90107E010E020E030E00093DA01109312
:100C1000DB012093DC013093DD0125E22093DE012E
:100C20008093DF019093E001A093E101B093E20192
:100C300026E22093E30108E010E020E030E000939A
:100C4000E4011093E5012093E6013093E70127E2E8
:100C50002093E80109E010E020E030E00093E90192
:100C60001093EA012093EB013093EC0128E22093EA
:100C7000ED018093EE019093EF01A093F001B0930A
:100C8000F10129E22093F20100E110E020E030E0E0
:100C90000093F3011093F4012093F5013093F601D2
:100CA0002AE22093F7018093F8019093F901A09331
:100CB000FA01B093FB012BE22093FC014093FD016C
:100CC0005093FE016093FF01709300022CE2209389
:100CD000010245E050E060E070E040930202509372
:100CE000030260930402709305022DE22093060232
:100CF0008093070290930802A0930902B0930A021E
:100D00002EE220930B0246E050E060E070E040935A
:100D10000C0250930D0260930E0270930F022FE2AB
:100D2000209310028093110290931202A093130259
:100D3000B093140220E3209315028093160290933F
:100D40001702A0931802B093190221E320931A020C
:100D500042E150E060E070E040931B0250931C02BF
:100D600060931D0270931E0222E320931F02809362
:100D7000200290932102A0932202B093230223E346
:100D80002093240241E150E060E070E040932502AE
:100D900050932602609327027093280224E3209345
:100DA000290243E050E060E070E040932A02509353
:100DB0002B0260932C0270932D0225E320932E02C8
:100DC00080932F0290933002A0933102B0933202AD
:100DD00026E32093330244E050E060E070E040936B
:100DE000340250933502609336027093370227E342
:100DF000209338028093390290933A02A0933B02E9
:100E0000B0933C0228E320933D0280933E029093EE
:100E10003F02A0934002B093410229E32093420293
:100E200043E150E060E070E040934302509344029D
:100E300060934502709346022AE320934702809311
:100E4000480290934902A0934A02B0934B022BE3CD
:100E500020934C0280934D0290934E02A0934F0238
:100E6000B09350022CE3209351028093520290934E
:100E70005302A0935402B09355022DE320935602DF
:100E80008093570290935802A0935902B0935A024C
:100E90008EE380935B0215E0412E512C612C712C66
:100EA000C2E5D2E022242394312C84E692E00E9411
:100EB000EA00181619060CF01EC10E942C024B0104
:100EC0005C0132E3C32ED12CE12CF12C0E942C02C8
:100ED000681979098A099B09683E73408105910563
:100EE000A8F321E0C21AD108E108F10888EE880EC3
:100EF00083E0981EA11CB11CC114D104E104F104CB
:100F000029F784E692E00E94C8008093610284E69B
:100F100092E00E94C8008093620284E692E00E9400
:100F2000C800E82E80936302D0906102F0906202C4
:100F30006F2D70E090E080E0982F872F762F662746
:100F40008D296E0D711D811D911DA30192010E94BD
:100F50001E09672B682B692B09F0CDC04E2D4295D9
:100F60004F70409363028D2D90E025E0289FF001A3
:100F7000299FF00D1124EF5DFE4F2081D22EE180DC
:100F8000EFEFE40FF7FE13C03092200120921F0113
:100F9000E73008F022C1F0E0E053F84F0C9440092C
:100FA000EA07FE071708200827084108880810925A
:100FB000200110921F01E73008F00FC1F0E0ED5161
:100FC000F84F0C9440090A08FE071108200827086A
:100FD0004108880880911F0190912001892BD1F050
:100FE00020936102109262024091630250E060918E
:100FF000620270E08091610290E026C080911F0142
:1010000090912001892B31F02093610282E080933E
:101010006202EACF6F2D70E08D2D9E2D0E948D0211
:10102000E3CF80911F0190912001892B21F0209323
:10103000610283E0ECCF62E0822F0E94F001D4CF06
:101040006F2D70E044E050E00E949F0254C08091F8
:101050001F0190912001892B59F02093610285E0B6
:101060008093620245E050E065E070E0822FC4CFDB
:101070008D2D9E2D0E946002BC014091630250E0C4
:10108000B9CF122F80911F0190912001892B51F02F
:101090002093610296E09093620246E050E066E0A1
:1010A00070E0E4CF60E0822F0E94F0011E3008F073
:1010B0001E50812F8770806480937C0080917A001D
:1010C000806480937A0080917A0086FDFCCF6091E5
:1010D0007800709179004091630250E075956795B2
:1010E000759567958091610290E00E949F028D2D19
:1010F0009E2D0E94600280E090E0892B09F4D5CEFD
:101100000E94F600882309F4D0CE0E940000CDCEC4
:1011100080911F0190912001892B31F02093610271
:1011200027E020936202E7CF01E010E0C8010E94AF
:1011300060020F5F1F4F0F331105C1F7109162025C
:1011400083B7816083BF62E082E00E94F00162E0C9
:1011500083E00E94F001D0930301C09302018091CB
:101160006900837F80936900E99AD0930101C0935D
:101170000001809169008C7F80936900E89A1330A8
:1011800001F138F4113011F0123059F083B7817F3A
:101190000BC01530F1F0C8F01630C1F783B78E6080
:1011A00003C083B7817F826083BF80916E008E7F92
:1011B00080936E00889580916E00816080936E00B0
:1011C0009ACF83B7817F8460EFCF83B7817F8660BA
:1011D000EBCF83B7817F8C60E7CF50E06F2D70E05D
:1011E00033CFE4E6F2E01382128288EE93E0A0E0CF
:1011F000B0E084839583A683B78388E091E09183F0
:10120000808385EC90E09587848784EC90E09787D5
:10121000868780EC90E0918B808B81EC90E0938BC3
:10122000828B82EC90E0958B848B86EC90E0978BA0
:10123000868B118E128E138E148E0895A1E21A2EB3
:10124000AA1BBB1BFD010DC0AA1FBB1FEE1FFF1F6A
:10125000A217B307E407F50720F0A21BB30BE40BBA
:10126000F50B661F771F881F991F1A9469F7609501
:101270007095809590959B01AC01BD01CF010895BB
:10128000EE0FFF1F0590F491E02D0994F894FFCF25
:1012900051025102000000002C018C00B9007901BC
:0612A000EA00C800DC00BA
:00000001FF
